{
  "contractName": "BadAdder",
  "abi": [
    {
      "constant": false,
      "inputs": [],
      "name": "notify",
      "outputs": [],
      "payable": false,
      "stateMutability": "nonpayable",
      "type": "function"
    },
    {
      "constant": false,
      "inputs": [
        {
          "internalType": "address",
          "name": "_addr",
          "type": "address"
        }
      ],
      "name": "setAddService",
      "outputs": [],
      "payable": false,
      "stateMutability": "nonpayable",
      "type": "function"
    },
    {
      "constant": false,
      "inputs": [],
      "name": "doAdd",
      "outputs": [],
      "payable": false,
      "stateMutability": "nonpayable",
      "type": "function"
    }
  ],
  "bytecode": "0x608060405234801561001057600080fd5b5061023f806100206000396000f3fe608060405234801561001057600080fd5b50600436106100415760003560e01c806375dbaced14610046578063899f589814610050578063d92976901461005a575b600080fd5b61004e61009e565b005b610058610121565b005b61009c6004803603602081101561007057600080fd5b81019080803573ffffffffffffffffffffffffffffffffffffffff1690602001909291905050506101c7565b005b6000809054906101000a900473ffffffffffffffffffffffffffffffffffffffff1673ffffffffffffffffffffffffffffffffffffffff166301ce96076040518163ffffffff1660e01b8152600401600060405180830381600087803b15801561010757600080fd5b505af115801561011b573d6000803e3d6000fd5b50505050565b60056001541115610131576101c5565b6001600081548092919060010191905055506000809054906101000a900473ffffffffffffffffffffffffffffffffffffffff1673ffffffffffffffffffffffffffffffffffffffff166301ce96076040518163ffffffff1660e01b8152600401600060405180830381600087803b1580156101ac57600080fd5b505af11580156101c0573d6000803e3d6000fd5b505050505b565b806000806101000a81548173ffffffffffffffffffffffffffffffffffffffff021916908373ffffffffffffffffffffffffffffffffffffffff1602179055505056fea265627a7a723158202e94d7290786e6414d0eead95ef2a605a1ab092119c8aafd3a412744227056af64736f6c63430005100032",
  "source": "pragma solidity >=0.4.25 <0.7.0;\nimport \"./AddService.sol\";\ncontract BadAdder is AdderInterface{\n\n    AddService private _addService;\n    uint private _calls;\n\n    //回调\n    function notify() public{\n        if(_calls > 5){\n            return;\n        }\n        _calls++;\n        //Attention !!!!!!\n        _addService.addByOne();\n    }\n\n    function setAddService(address _addr) public {\n        _addService = AddService(_addr);\n    }\n    function doAdd() public{\n        _addService.addByOne();    \n    }\n}",
  "sourcePath": "/Users/zhouyc/dev/ethereum/reentrance/contracts/BadAdder.sol",
  "compiler": {
    "name": "solc",
    "version": "0.5.16+commit.9c3226ce.Emscripten.clang"
  },
  "schemaVersion": "3.0.23",
  "updatedAt": "2020-04-08T02:10:14.151Z",
  "networkType": "ethereum",
  "devdoc": {
    "methods": {}
  },
  "userdoc": {
    "methods": {}
  }
}